{
  "contractName": "TodoList",
  "abi": [
    {
      "anonymous": false,
      "inputs": [
        {
          "indexed": false,
          "internalType": "uint16",
          "name": "_id",
          "type": "uint16"
        }
      ],
      "name": "taskCompleted",
      "type": "event"
    },
    {
      "anonymous": false,
      "inputs": [
        {
          "indexed": false,
          "internalType": "uint16",
          "name": "_id",
          "type": "uint16"
        }
      ],
      "name": "taskContentEdited",
      "type": "event"
    },
    {
      "anonymous": false,
      "inputs": [
        {
          "indexed": false,
          "internalType": "uint16",
          "name": "_id",
          "type": "uint16"
        },
        {
          "indexed": false,
          "internalType": "string",
          "name": "_content",
          "type": "string"
        }
      ],
      "name": "taskCreated",
      "type": "event"
    },
    {
      "constant": true,
      "inputs": [
        {
          "internalType": "uint256",
          "name": "",
          "type": "uint256"
        }
      ],
      "name": "tasks",
      "outputs": [
        {
          "internalType": "uint16",
          "name": "id",
          "type": "uint16"
        },
        {
          "internalType": "string",
          "name": "content",
          "type": "string"
        },
        {
          "internalType": "bool",
          "name": "complete",
          "type": "bool"
        }
      ],
      "payable": false,
      "stateMutability": "view",
      "type": "function"
    },
    {
      "constant": false,
      "inputs": [
        {
          "internalType": "string",
          "name": "_content",
          "type": "string"
        }
      ],
      "name": "createTask",
      "outputs": [],
      "payable": false,
      "stateMutability": "nonpayable",
      "type": "function"
    },
    {
      "constant": false,
      "inputs": [
        {
          "internalType": "uint16",
          "name": "_id",
          "type": "uint16"
        }
      ],
      "name": "markTaskComplete",
      "outputs": [],
      "payable": false,
      "stateMutability": "nonpayable",
      "type": "function"
    },
    {
      "constant": false,
      "inputs": [
        {
          "internalType": "uint16",
          "name": "_id",
          "type": "uint16"
        },
        {
          "internalType": "string",
          "name": "_content",
          "type": "string"
        }
      ],
      "name": "editTaskContent",
      "outputs": [],
      "payable": false,
      "stateMutability": "nonpayable",
      "type": "function"
    }
  ],
  "bytecode": "0x608060405260008060006101000a81548161ffff021916908361ffff16021790555034801561002d57600080fd5b506107158061003d6000396000f3fe608060405234801561001057600080fd5b506004361061004c5760003560e01c806310d4c0c214610051578063111002aa146100835780634ac41b33146100fc5780638d97767214610183575b600080fd5b6100816004803603602081101561006757600080fd5b81019080803561ffff169060200190929190505050610244565b005b6100fa6004803603602081101561009957600080fd5b81019080803590602001906401000000008111156100b657600080fd5b8201836020820111156100c857600080fd5b803590602001918460018302840111640100000000831117156100ea57600080fd5b90919293919293905050506102b8565b005b6101816004803603604081101561011257600080fd5b81019080803561ffff1690602001909291908035906020019064010000000081111561013d57600080fd5b82018360208201111561014f57600080fd5b8035906020019184600183028401116401000000008311171561017157600080fd5b9091929391929390505050610470565b005b6101af6004803603602081101561019957600080fd5b81019080803590602001909291905050506104de565b604051808461ffff1661ffff1681526020018060200183151515158152602001828103825284818151815260200191508051906020019080838360005b838110156102075780820151818401526020810190506101ec565b50505050905090810190601f1680156102345780820380516001836020036101000a031916815260200191505b5094505050505060405180910390f35b60018060008361ffff16815260200190815260200160002060020160006101000a81548160ff0219169083151502179055507fe1f4b7735cfb3d2caadb690a64880e08d8967ad0d5322c0245946cb812dcae0181604051808261ffff1661ffff16815260200191505060405180910390a150565b60008081819054906101000a900461ffff168092919060010191906101000a81548161ffff021916908361ffff1602179055505060405180606001604052806000809054906101000a900461ffff1661ffff16815260200183838080601f016020809104026020016040519081016040528093929190818152602001838380828437600081840152601f19601f82011690508083019250505050505050815260200160001515815250600160008060009054906101000a900461ffff1661ffff16815260200190815260200160002060008201518160000160006101000a81548161ffff021916908361ffff16021790555060208201518160010190805190602001906103c69291906105bb565b5060408201518160020160006101000a81548160ff0219169083151502179055509050507fca73843469a01f367f06a4bf76afc28a6ab9e44d7545f9009a5d5b84898acf2f6000809054906101000a900461ffff168383604051808461ffff1661ffff168152602001806020018281038252848482818152602001925080828437600081840152601f19601f82011690508083019250505094505050505060405180910390a15050565b8181600160008661ffff168152602001908152602001600020600101919061049992919061063b565b507fa7822fe7c7554ecda477c21e0b16410cd1b9a8484993cd3f6ec2be7065984e3e83604051808261ffff1661ffff16815260200191505060405180910390a1505050565b60016020528060005260406000206000915090508060000160009054906101000a900461ffff1690806001018054600181600116156101000203166002900480601f01602080910402602001604051908101604052809291908181526020018280546001816001161561010002031660029004801561059e5780601f106105735761010080835404028352916020019161059e565b820191906000526020600020905b81548152906001019060200180831161058157829003601f168201915b5050505050908060020160009054906101000a900460ff16905083565b828054600181600116156101000203166002900490600052602060002090601f016020900481019282601f106105fc57805160ff191683800117855561062a565b8280016001018555821561062a579182015b8281111561062957825182559160200191906001019061060e565b5b50905061063791906106bb565b5090565b828054600181600116156101000203166002900490600052602060002090601f016020900481019282601f1061067c57803560ff19168380011785556106aa565b828001600101855582156106aa579182015b828111156106a957823582559160200191906001019061068e565b5b5090506106b791906106bb565b5090565b6106dd91905b808211156106d95760008160009055506001016106c1565b5090565b9056fea265627a7a7231582006c9371eb0cba8ea9c311fde7dfdeaeba0c7368866e6120fe5ba8db953e7e42864736f6c63430005100032",
  "source": "pragma solidity >=0.5.0;\n\ncontract TodoList {\n  uint16 taskCount = 0;\n\n  struct Task {\n    uint16 id;\n    string content;\n    bool complete;\n  }\n\n  mapping(uint => Task) public tasks;\n\n  event taskCreated(uint16 _id, string _content);\n  event taskCompleted(uint16 _id);\n  event taskContentEdited(uint16 _id);\n\n  function createTask(string calldata _content) external {\n    taskCount++;\n    tasks[taskCount] = Task(taskCount, _content, false);\n    emit taskCreated(taskCount, _content);\n  }\n\n  function markTaskComplete(uint16 _id) external {\n    tasks[_id].complete = true;\n    emit taskCompleted(_id);\n  }\n\n  function editTaskContent(uint16 _id, string calldata _content) external {\n    tasks[_id].content = _content;\n    emit taskContentEdited(_id);\n  }\n}",
  "sourcePath": "/home/manjaro-kde/Desktop/ethereum-todo-list/blockchain/contracts/TodoList.sol",
  "compiler": {
    "name": "solc",
    "version": "0.5.16+commit.9c3226ce.Emscripten.clang"
  },
  "schemaVersion": "3.0.23",
  "updatedAt": "2020-03-23T18:18:39.284Z",
  "networkType": "ethereum",
  "devdoc": {
    "methods": {}
  },
  "userdoc": {
    "methods": {}
  }
}