{
  "contractName": "TodoList",
  "abi": [
    {
      "constant": true,
      "inputs": [],
      "name": "taskCount",
      "outputs": [
        {
          "internalType": "uint16",
          "name": "",
          "type": "uint16"
        }
      ],
      "payable": false,
      "stateMutability": "view",
      "type": "function"
    },
    {
      "constant": true,
      "inputs": [
        {
          "internalType": "uint256",
          "name": "",
          "type": "uint256"
        }
      ],
      "name": "tasks",
      "outputs": [
        {
          "internalType": "uint16",
          "name": "id",
          "type": "uint16"
        },
        {
          "internalType": "string",
          "name": "content",
          "type": "string"
        },
        {
          "internalType": "bool",
          "name": "complete",
          "type": "bool"
        }
      ],
      "payable": false,
      "stateMutability": "view",
      "type": "function"
    },
    {
      "constant": false,
      "inputs": [
        {
          "internalType": "string",
          "name": "_content",
          "type": "string"
        }
      ],
      "name": "createTask",
      "outputs": [],
      "payable": false,
      "stateMutability": "nonpayable",
      "type": "function"
    },
    {
      "constant": false,
      "inputs": [
        {
          "internalType": "uint16",
          "name": "_id",
          "type": "uint16"
        },
        {
          "internalType": "bool",
          "name": "_complete",
          "type": "bool"
        }
      ],
      "name": "updateTaskStatus",
      "outputs": [],
      "payable": false,
      "stateMutability": "nonpayable",
      "type": "function"
    },
    {
      "constant": false,
      "inputs": [
        {
          "internalType": "uint16",
          "name": "_id",
          "type": "uint16"
        },
        {
          "internalType": "string",
          "name": "_content",
          "type": "string"
        }
      ],
      "name": "editTaskContent",
      "outputs": [],
      "payable": false,
      "stateMutability": "nonpayable",
      "type": "function"
    }
  ],
  "bytecode": "0x60806040526000805461ffff1916905534801561001b57600080fd5b506105508061002b6000396000f3fe608060405234801561001057600080fd5b50600436106100575760003560e01c8063111002aa1461005c5780634ac41b33146100ce5780638d97767214610149578063b6cb58a5146101f3578063c97a0d7514610212575b600080fd5b6100cc6004803603602081101561007257600080fd5b81019060208101813564010000000081111561008d57600080fd5b82018360208201111561009f57600080fd5b803590602001918460018302840111640100000000831117156100c157600080fd5b50909250905061023b565b005b6100cc600480360360408110156100e457600080fd5b61ffff823516919081019060408101602082013564010000000081111561010a57600080fd5b82018360208201111561011c57600080fd5b8035906020019184600183028401116401000000008311171561013e57600080fd5b509092509050610300565b6101666004803603602081101561015f57600080fd5b5035610328565b6040805161ffff8516815282151591810191909152606060208083018281528551928401929092528451608084019186019080838360005b838110156101b657818101518382015260200161019e565b50505050905090810190601f1680156101e35780820380516001836020036101000a031916815260200191505b5094505050505060405180910390f35b6101fb6103df565b6040805161ffff9092168252519081900360200190f35b6100cc6004803603604081101561022857600080fd5b5061ffff813516906020013515156103e9565b6000805461ffff198116600161ffff92831601821617918290556040805160608101825292909116825280516020601f850181900481028201810190925283815281830191859085908190840183828082843760009201829052509385525050506020918201819052805461ffff9081168252600180845260409092208451815461ffff1916921691909117815583830151805191936102e093850192910190610412565b50604091909101516002909101805460ff19169115159190911790555050565b61ffff8316600090815260016020819052604090912061032291018383610490565b50505050565b600160208181526000928352604092839020805481840180548651600261010097831615979097026000190190911695909504601f810185900485028601850190965285855261ffff909116949193929091908301828280156103cc5780601f106103a1576101008083540402835291602001916103cc565b820191906000526020600020905b8154815290600101906020018083116103af57829003601f168201915b5050506002909301549192505060ff1683565b60005461ffff1681565b61ffff919091166000908152600160205260409020600201805460ff1916911515919091179055565b828054600181600116156101000203166002900490600052602060002090601f016020900481019282601f1061045357805160ff1916838001178555610480565b82800160010185558215610480579182015b82811115610480578251825591602001919060010190610465565b5061048c9291506104fe565b5090565b828054600181600116156101000203166002900490600052602060002090601f016020900481019282601f106104d15782800160ff19823516178555610480565b82800160010185558215610480579182015b828111156104805782358255916020019190600101906104e3565b61051891905b8082111561048c5760008155600101610504565b9056fea265627a7a723158209f11d0d7c3a2a3d1e0116af2bbd973e7ac224f6c0a55d27f67e692b6d77fb6be64736f6c63430005100032",
  "source": "pragma solidity >=0.5.0;\n\ncontract TodoList {\n  uint16 public taskCount = 0;\n\n  struct Task {\n    uint16 id;\n    string content;\n    bool complete;\n  }\n\n  mapping(uint => Task) public tasks;\n  /*\n    event logging cost gas. Therefore it is removed.\n\n    event taskCreated(uint16 id, string content);\n    event taskStatusUpdated(uint16 id, bool complete);\n    event taskContentEdited(uint16 id, string content);\n  */\n  function createTask(string calldata _content) external {\n    taskCount++;\n    tasks[taskCount] = Task(taskCount, _content, false);\n    //emit taskCreated(taskCount, _content);\n  }\n\n  function updateTaskStatus(uint16 _id, bool _complete) external {\n    tasks[_id].complete = _complete;\n    //emit taskStatusUpdated(_id, _complete);\n  }\n\n  function editTaskContent(uint16 _id, string calldata _content) external {\n    tasks[_id].content = _content;\n    //emit taskContentEdited(_id, _content);\n  }\n}",
  "sourcePath": "/home/manjaro-kde/Desktop/ethereum-todo-list/blockchain/contracts/TodoList.sol",
  "compiler": {
    "name": "solc",
    "version": "0.5.16+commit.9c3226ce.Emscripten.clang"
  },
  "schemaVersion": "3.0.23",
  "updatedAt": "2020-03-26T14:05:28.019Z",
  "devdoc": {
    "methods": {}
  },
  "userdoc": {
    "methods": {}
  }
}